:020000040800F2
:100000000000022061020008B1020008B1020008ED
:10001000B1020008B1020008B102000800000000AF
:10002000000000000000000000000000B102000815
:10003000B102000800000000B1020008B10200088F
:10004000B1020008B1020008B1020008B1020008C4
:10005000B1020008B1020008B1020008B1020008B4
:10006000B1020008B1020008B1020008B1020008A4
:10007000B1020008B1020008B1020008B102000894
:10008000B1020008B1020008B1020008B102000884
:10009000B1020008B1020008B1020008B102000874
:1000A000B1020008B1020008B1020008B102000864
:1000B000B1020008B1020008B1020008B102000854
:1000C000B1020008B1020008B1020008B102000844
:1000D000B1020008B1020008B1020008B102000834
:1000E000B1020008B1020008B1020008B102000824
:1000F000B1020008B1020008B1020008B102000814
:10010000B1020008B1020008B1020008B102000803
:10011000B1020008B1020008B1020008B1020008F3
:10012000B1020008B1020008B1020008B1020008E3
:10013000B10200080000000000000000B102000849
:10014000B1020008B1020008B1020008B1020008C3
:10015000B1020008B1020008B1020008B1020008B3
:10016000B1020008B1020008B1020008B1020008A3
:10017000B1020008B1020008B1020008000000004E
:10018000000000000000000000000000000000006F
:10019000B10200080000000000000000B1020008E9
:1001A000000000000000000000000000B102000894
:1001B000B1020008B1020008B1020008B102000853
:0401C000B102000880
:1001C40010B5054C237833B9044B13B10448AFF38D
:1001D40000800123237010BD0000002000000000F7
:1001E400FC02000808B5034B1BB103490348AFF3F5
:1001F400008008BD0000000004000020FC0200088C
:1002040080B485B000AF124BFB60FB681B6843F001
:100214000102FB681A600F4BBB60BB681B6823F4C8
:100224004062BB681A60BB681B6843F48062BB68A9
:100234001A60094B7B607B681B6843F020027B6873
:100244001A60002318461437BD465DF8047B7047D6
:100254003038024000000240140002400D48854638
:10026400AFF300800C480D490D4A002302E0D45836
:10027400C4500433C4188C42F9D30A4A0A4C0023EC
:1002840001E013600432A242FBD300F011F8FFF73F
:10029400B7FFFEE70000022000000020000000205D
:1002A4001C030008000000201C000020FEE70000E2
:1002B40070B50D4D0D4C641BA4100026A64209D147
:1002C4000B4D0C4C00F018F8641BA4100026A64239
:1002D40005D170BD55F8043B98470136EEE755F853
:1002E400043B98470136F2E714030008140300089E
:1002F4001403000818030008F8B500BFF8BC08BCD4
:100304009E467047F8B500BFF8BC08BC9E467047CF
:04031400E9010008F3
:04031800C501000813
:04000005080002618C
:00000001FF
